:020000040000fa
:080000000002040000000000f2
:020000040000fa
:0400080032030000bf
:020000040000fa
:04000c0032030000bb
:020000040000fa
:0400100032030000b7
:020000040000fa
:0400140032030000b3
:020000040000fa
:0400180032030000af
:020000040000fa
:04001c0032030000ab
:020000040000fa
:0400200032030000a7
:020000040000fa
:0400240032030000a3
:020000040000fa
:04002800320300009f
:020000040000fa
:04002c00320300009b
:020000040000fa
:040030003203000097
:020000040000fa
:040034003203000093
:020000040000fa
:04003800320300008f
:020000040000fa
:04003c00320300008b
:020000040000fa
:040040003203000087
:020000040000fa
:04004400180300009d
:020000040000fa
:04004800320300007f
:020000040000fa
:04004c00320300007b
:020000040000fa
:040050003203000077
:020000040000fa
:040054003203000073
:020000040000fa
:04005800320300006f
:020000040000fa
:04005c00320300006b
:020000040000fa
:040060003203000067
:020000040000fa
:040064003203000063
:020000040000fa
:04006800320300005f
:020000040000fa
:04006c00320300005b
:020000040000fa
:040070003203000057
:020000040000fa
:04007400c8020000be
:020000040000fa
:04007800320300004f
:020000040000fa
:04007c00320300004b
:020000040000fa
:040080003203000047
:020000040000fa
:040084003203000043
:020000040000fa
:04008800320300003f
:020000040000fa
:04008c00320300003b
:020000040000fa
:040090003203000037
:020000040000fa
:040094003203000033
:020000040000fa
:04009800320300002f
:020000040000fa
:04009c00320300002b
:020000040000fa
:0400a0002203000037
:020000040000fa
:0400a4002a0300002b
:020000040000fa
:0400a800320300001f
:020000040000fa
:0400ac00320300001b
:020000040000fa
:0400b0003203000017
:020000040000fa
:0400b4003203000013
:020000040000fa
:0400b800320300000f
:020000040000fa
:0400bc00320300000b
:020000040000fa
:0400c0003203000007
:020000040000fa
:0400c4003203000003
:020000040000fa
:0400c80032030000ff
:020000040000fa
:0400cc0032030000fb
:020000040000fa
:0400d00032030000f7
:020000040000fa
:0400d40032030000f3
:020000040000fa
:0400d80032030000ef
:020000040000fa
:0400dc0032030000eb
:020000040000fa
:0400e00032030000e7
:020000040000fa
:0400e40032030000e3
:020000040000fa
:0400e80032030000df
:020000040000fa
:0400ec0032030000db
:020000040000fa
:0400f00032030000d7
:020000040000fa
:0400f40032030000d3
:020000040000fa
:0400f80032030000cf
:020000040000fa
:0400fc0032030000cb
:020000040000fa
:0401000032030000c6
:020000040000fa
:0401040032030000c2
:020000040000fa
:0401080032030000be
:020000040000fa
:04010c0032030000ba
:020000040000fa
:0401100032030000b6
:020000040000fa
:0401140032030000b2
:020000040000fa
:0401180032030000ae
:020000040000fa
:04011c0032030000aa
:020000040000fa
:0401200032030000a6
:020000040000fa
:0401240032030000a2
:020000040000fa
:04012800320300009e
:020000040000fa
:04012c00320300009a
:020000040000fa
:040130003203000096
:020000040000fa
:040134003203000092
:020000040000fa
:04013800320300008e
:020000040000fa
:04013c00320300008a
:020000040000fa
:040140003203000086
:020000040000fa
:040144003203000082
:020000040000fa
:04014800320300007e
:020000040000fa
:04014c00320300007a
:020000040000fa
:040150003203000076
:020000040000fa
:040154003203000072
:020000040000fa
:04015800320300006e
:020000040000fa
:04015c00320300006a
:020000040000fa
:0402080032030000bd
:020000040000fa
:04020c0032030000b9
:020000040000fa
:0402100032030000b5
:020000040000fa
:0402140032030000b1
:020000040000fa
:0402180032030000ad
:020000040000fa
:04021c0032030000a9
:020000040000fa
:0402200032030000a5
:020000040000fa
:0402240032030000a1
:020000040000fa
:04022800320300009d
:020000040000fa
:04022c003203000099
:020000040000fa
:040230003203000095
:020000040000fa
:040234003203000091
:020000040000fa
:04023800320300008d
:020000040000fa
:04023c003203000089
:020000040000fa
:040240003203000085
:020000040000fa
:04024400180300009b
:020000040000fa
:04024800320300007d
:020000040000fa
:04024c003203000079
:020000040000fa
:040250003203000075
:020000040000fa
:040254003203000071
:020000040000fa
:04025800320300006d
:020000040000fa
:04025c003203000069
:020000040000fa
:040260003203000065
:020000040000fa
:040264003203000061
:020000040000fa
:04026800320300005d
:020000040000fa
:04026c003203000059
:020000040000fa
:040270003203000055
:020000040000fa
:04027400c8020000bc
:020000040000fa
:04027800320300004d
:020000040000fa
:04027c003203000049
:020000040000fa
:040280003203000045
:020000040000fa
:040284003203000041
:020000040000fa
:04028800320300003d
:020000040000fa
:04028c003203000039
:020000040000fa
:040290003203000035
:020000040000fa
:040294003203000031
:020000040000fa
:04029800320300002d
:020000040000fa
:04029c003203000029
:020000040000fa
:0402a0002203000035
:020000040000fa
:0402a4002a03000029
:020000040000fa
:0402a800320300001d
:020000040000fa
:0402ac003203000019
:020000040000fa
:0402b0003203000015
:020000040000fa
:0402b4003203000011
:020000040000fa
:0402b800320300000d
:020000040000fa
:0402bc003203000009
:020000040000fa
:0402c0003203000005
:020000040000fa
:0402c4003203000001
:020000040000fa
:0402c80032030000fd
:020000040000fa
:0402cc0032030000f9
:020000040000fa
:0402d00032030000f5
:020000040000fa
:0402d40032030000f1
:020000040000fa
:0402d80032030000ed
:020000040000fa
:0402dc0032030000e9
:020000040000fa
:0402e00032030000e5
:020000040000fa
:0402e40032030000e1
:020000040000fa
:0402e80032030000dd
:020000040000fa
:0402ec0032030000d9
:020000040000fa
:0402f00032030000d5
:020000040000fa
:0402f40032030000d1
:020000040000fa
:0402f80032030000cd
:020000040000fa
:0402fc0032030000c9
:020000040000fa
:0403000032030000c4
:020000040000fa
:0403040032030000c0
:020000040000fa
:0403080032030000bc
:020000040000fa
:04030c0032030000b8
:020000040000fa
:0403100032030000b4
:020000040000fa
:0403140032030000b0
:020000040000fa
:0403180032030000ac
:020000040000fa
:04031c0032030000a8
:020000040000fa
:0403200032030000a4
:020000040000fa
:0403240032030000a0
:020000040000fa
:04032800320300009c
:020000040000fa
:04032c003203000098
:020000040000fa
:040330003203000094
:020000040000fa
:040334003203000090
:020000040000fa
:04033800320300008c
:020000040000fa
:04033c003203000088
:020000040000fa
:040340003203000084
:020000040000fa
:040344003203000080
:020000040000fa
:04034800320300007c
:020000040000fa
:04034c003203000078
:020000040000fa
:040350003203000074
:020000040000fa
:040354003203000070
:020000040000fa
:04035800320300006c
:020000040000fa
:04035c003203000068
:020000040000fa
:10040000cf8020000edf20000e01880000000000d9
:10041000000020000000e000020032000001200087
:100420002002880014000700900007000000e00090
:1004300003003a0000f42000010020000200370011
:100440000000200001002000810f70000100320038
:1004500014000700000020000000e000020032004d
:1004600000000200000000005a0f0200000000001f
:100470000040da000000fe004440a900800e200089
:100480000000e0000300320000002000a00188000e
:100490004440a800000006008a1f78008b1f7800e7
:1004a0000000060091018800800478000000eb0045
:1004b0001a003700e284440032a0b4009905ba0063
:1004c000e284440032a0b4009906ba00e2844400f9
:1004d00032a0b4000006eb00476fde00fd07b2005b
:1004e000636ce10003003a00ebff07000000eb0043
:1004f0000a003700606ce10004003a00005deb0088
:100500008b05e900fdff3e00040037006168e10053
:10051000010032000086eb000b00070019c7ba008b
:100520001905ba000e04e00003003a000a00e000da
:10053000e0ff3a0000000600fe07b2009e018800be
:100540008a047800f5ff3700395dba008b05e900b1
:100550000c003200295dba008b05e900080032006a
:100560000c00e00003003a00e284440032a0b40032
:10057000f5ff370019ddba008b05e900faff3a00f4
:100580008904e800e184440032a0b40000000600c1
:100590003600f800809fbe00829fbe00849fbe0090
:1005a000869fbe000000fa008660a90000000000df
:1005b00080002000ca0507000028ef000228ef0095
:1005c0000428ef00400620001806070010168000df
:1005d000640060000000e00002003a00100020000b
:1005e0000040880010168000700060000000e000ed
:1005f00002003a00100020001040880050168000d1
:10060000700060000000e00002003a0010002000ce
:10061000204088000080fa004f03be004f02be0059
:100620004f01be004f00be003600f900004006003a
:100630000000fa0084e0a90011e1a9000080fa009e
:10064000004006000000fa0087c0a9000080fa0000
:10065000004006000000fa0087e0a9000080fa00d0
:10066000004006000040da000000fe000000050027
:10067000889fbe008a9fbe008c1f780099000700eb
:10068000a000330003866c006450e1002e003200ad
:100690006420e100330032006150e1002f0032009d
:1006a0006120e1003100320085855500eb07b00084
:1006b0000900200008042000050037000804440059
:1006c00089844c000a0031000603430087834b00f5
:1006d0000001530081815b00f8ff33000203be007c
:1006e0000800a0000804440089844c00f6ff39008b
:1006f000c639dd00830173000100320013002000c1
:100700008904d1000884d3000998a30005003200b1
:100710000800a7000300a0008904d1000884d300ca
:100720008b05e8008904d1000884d3000001eb00a8
:100730000281d2003000070001f0a1000cf0a700f8
:1007400001f0a000780037006420e1007a00320058
:100750000801be000200be00f7ff37006120e10083
:10076000750032006000b800f3ff37000000200081
:1007700001f82700f0ff37000001be004400070029
:100780000470a70003f0a10003f8a30013003a00cf
:100790006509b10010003200090035006928e10048
:1007a00002003500010028000000050000004000a4
:1007b000818048008502e900fcff3a000000060045
:1007c000f88f4200050035008100d1000080d30081
:1007d0008502e800fcff3a00000006008000eb0004
:1007e000000005004f89de008201780051023700c9
:1007f0006011b8005f023700810020006180550061
:100800000b003d000b00200061fe2f000100e10005
:100810001d00340082817100610164008904d100ef
:100820000884d3000000e800faff3a0071002000bd
:1008300061006400030070000200600009003200e3
:1008400061044400e0844c000988a50005003200e2
:100850008b05e8006808e10002003a008904d10035
:100860000884d300f20f20000258e10005003d008b
:10087000c75ddd00f907b2008980750008007800c7
:10088000000006000bf827008b0078000000050030
:10089000c70ade00f107b200f50fb200080032000f
:1008a000e1cf4200020032000170a00024000500e8
:1008b000810f7000010032000408050044000500ab
:1008c000810f700002003a00140005008502e90063
:1008d0000000400081c04800fcff3b000170a00008
:1008e000240005000004be00e9ff07000003be006d
:1008f0000405be000200be00e5ff0700844f75003e
:10090000000006000200be006450e1000500360051
:100910006420e100020036000968a30001003a00eb
:100920000800be000160a0004f0678004f05be0021
:100930004f04be0000000600f0ff2f00f1ff27006b
:10094000f9ff37000c00fa00889fbe008a9fbe00a6
:100950008c9fbe00e3ff07000206be0084057800fe
:100960000200be0002002000a601070005003a00b8
:100970008b02b30012002000a201070001003a0020
:10098000f8856d000c01be00c60007000800be001f
:100990009b0032000b08a3009e003a000df0a70058
:1009a0000be0a00009f0a7000bf0a00009f0a100e7
:1009b0000801be00bb0007000bf0a6009500320046
:1009c00001003c000bd0a0008acf7500b2003300bc
:1009d0006000b8006250e10099003900a1003e00bb
:1009e0000b28a300a2003a000bf8a3000600320077
:1009f0000b58a300a70032000801be00a9000700a1
:100a00000800be00940032000800be00b0000700dd
:100a10000004be00050578000bf0a7000b30a6000f
:100a20000bf0a1005b079800324f200053f3230026
:100a30009b01070005003d000800be0012002000d9
:100a4000fb0107000004be000a05e9004a07980000
:100a50006150b90063ff0700008fbe000c01be00ab
:100a60006c02070092010700300798000100e000c7
:100a700002003d0060001000e0801800f2ff270037
:100a8000820f5000e08f580064003e000c00be0052
:100a90008701070020079800f2072000820f50000e
:100aa000e08f580005003c0012f82f00f3ff2f00e4
:100ab000820f5000838f580009003d000a00e000bb
:100ac0000300320001003c000201ea000205780048
:100ad0006000b800200798003a0798001900370016
:100ae0003e0090006100b9003eff0700809fbe00fd
:100af0000c00be004109dd004811de007208b100a3
:100b0000400107000005be001e01be0041020700b3
:100b10004f01be007b000700809fbe000c00be009e
:100b20000a01be00770007001e01be00390207005f
:100b30004f01be00740007008221270013f3230039
:100b4000340207000005be002e0090006100b900cd
:100b500024ff070001f0a2000c01be006a0007009c
:100b60000006be000800be00d30107000c01be0055
:100b7000280207000a01be0063000700809fbe0034
:100b80004a0007002e0590000af0a7000a05ea00b7
:100b9000050037000800be000801be001d02070066
:100ba0000004be000c00be000801be000a00a70041
:100bb000180207000006be000a05d100f5ff3a0042
:100bc0005e01900002e0a600030037000001be00b5
:100bd00036000700a6fe07000004be004f00be005e
:100be000a60007000801be000a0207003e019000af
:100bf0008f010700de0590000bf0a70001f0a200b6
:100c00004f06be004f05be004f04be000080fa0034
:100c10000000060025000700f9ff37002700070045
:100c20006000b8000bd0a7000bc0a0000be0a7002d
:100c30000bc0a2000bc0a70001f82700f0ff37008f
:100c40000df8a300020032001e0007001900070083
:100c50000bf8a300eaff32000b30a70001f0a2005e
:100c6000e7ff37000df8a300f9ff3a00f7ff370060
:100c70000801be000b000700e6ff320001003c0047
:100c80000df0a2006000b8000df0a70009000700f9
:100c9000dbff37000b000700f1ff2700f0ff2f00fc
:100ca000d7ff370001000700fd00370001f82300df
:100cb0000000050001f827000000050020022000c8
:100cc000010037001002200050408800000006009c
:100cd0000003be00eefe07006220e10002003200c9
:100ce0000600be0005000500e507b100f107b200ef
:100cf00004f023008480700007f0a70001f0a0003a
:100d00002400050003f0a200889fbe008a9fbe0059
:100d10008c1f7800f3fe0700fafe33006450e100f8
:100d20004f0032006420e1005200320003826c0068
:100d300007003b000905d0000306d000820f5400d5
:100d40000c065d00020039000200320089017800c3
:100d5000030678008582550004003d000003fd0075
:100d60008103fd008502ea008b854200840f72003a
:100d700002003b0060001000e08018006011b80025
:100d80000005eb007a28e1000a003900060078002f
:100d9000c75ddd00f707b200878075002d003700c2
:100da000828171000a017800610560008180d100b4
:100db0000080d3008502e900f9ff3b0006044000f3
:100dc0008784480002003b0060041400e0841c009b
:100dd0000988a300070032008a81710082817100b6
:100de000610164008904d1000884d3008b05e80008
:100df000170037000978a30013003a000b00e00049
:100e0000130034008b05e9000804440089844c0079
:100e10000a4474000978a3000d003a000b00e000ba
:100e2000070034008b05e9000804440089844c0065
:100e300001003a000b0020000978a300f7ff320000
:100e40000001eb0002003700828171000a01780086
:100e500069fe07000cf0a70001f0a000b2fe370009
:100e60006420e10002003a00838f6c00b2fe330080
:100e70000801be000200be00abfe3700889fbe0026
:100e80008a9fbe008c9fbe000004be0080fe07004b
:100e90000800be006420e10048003e00550032001a
:100ea00072212700132b24007f00070047003c001d
:100eb0000800be00c2ec2800e32c2c0078000700dc
:100ec000470035000800be0001f0a100020020002c
:100ed0000338230072000700430035000800be00fd
:100ee000b2a32a0083fb23004a010700020020006e
:100ef00003f0230001f0a70003f0a00082ff070029
:100f00006b0007000005be0036fe070001f0a200de
:100f10000006be000200280013f323003d01070075
:100f20000801be0078ff0700809fbe000c00be00d5
:100f300032082800e3952b00360107004f01be0060
:100f400071ff07000006be000001be00310107006e
:100f5000809fbe004241250083b823002d01070079
:100f60000200200003e8230067ff07000c01be0019
:100f7000280107000006be004f00be00f2f92b005a
:100f8000c3d42300230107000200200003f0230044
:100f90005dff07000c01be005aff07000001be0004
:100fa0000c00be00b2fd07000200200003f0230089
:100fb00055ff0700610145009d0007004f06be0078
:100fc0004f05be004f04be000000060001f82700d8
:100fd000000020002202200052408800f7ff370066
:100fe0006000b800fbff370001f82300000020007c
:100ff000f2ff370009f8a300f0ff32006000b800ec
:10100000eeff3700889fbe008a9fbe000003be002f
:101010001ffe070085057800828152000200200033
:101020006220e10004003a00f307b100040035003b
:101030007718e100040035000600be0014003700f8
:101040006000b8000f003700f50f2000faff2f00f6
:101050008502d1000a85d3008301e900fcff3b0033
:101060008184620000046500890f7400f2ff320081
:101070008582ea000a85ea00818462000004650036
:10108000ddfd070007f0a70001f0a0000081eb00e4
:101090000200e0004f05be004f04be000000060045
:1010a000140020000f013700f4ff2f000d0137005e
:1010b0000001be00f6fd07000470a70003f0a100c8
:1010c0006509b100160032000d0035006828e10006
:1010d00006003500f0ff2f00f1ff27000300e000bd
:1010e00013003b0001002800000005000000400044
:1010f000818048008502e900fcff3a0008003700c3
:10110000f88f420002003c008000eb000000050068
:101110008100d1000080d3008502e800fcff3a0086
:101120000300e00002003b0060001000e0801800b7
:1011300000000600881f7800030478000300e00028
:1011400007003d0060001000e080180060011900f9
:10115000e081190002003b0001f02d000300370080
:101160000400070008f0a70001f0a0004f04780079
:1011700000000600889fbe008a9fbe0000827000ab
:101180000402710004827100260032000004be00d7
:101190000200be006011b8006b092000950220001b
:1011a0000182cf000a0039000541b1000082cf0062
:1011b000070039000541b1000982cf000400390061
:1011c0000541b1000882cf00010039000541b1009e
:1011d00005425200120032000a003b008281710079
:1011e000610164008100d1000080d3008984d300b4
:1011f0000884d3008b05e8000442e800f7ff3a00ba
:10120000070037000804440089844c0000004800af
:10121000818048008b05e9000442e900f9ff3a00ab
:1012200075fd07004f05be004f04be00000006001c
:101230000003be0096fd07006220e10002003200bc
:101240000600be000000060085024100e30f2000fa
:101250000328e10005003c00a3fe2f000328e10065
:1012600007003d000500200001003700f50f2000b9
:1012700020022000504088006000b80008003700bd
:10128000130020008381520005003d008100d10041
:101290000080d3008301e800fcff3a000500200035
:1012a000c72add00f107b2008580700007f0a700b3
:1012b00001f0a00000000600889fbe008a9fbe00cb
:1012c0008c9fbe0082fe0700850478000005be00ea
:1012d0006420e10049003e006220e100030032008a
:1012e000090035000bf8a300440032000bf8a300fe
:1012f000080032001002200050408800f0ff2f004c
:10130000f1ff27003d00370001f82f00000020000a
:101310003a0037003d0007007afe07000006be00d5
:101320000a00be00324f200053f323005eff070087
:10133000060034000c00be003400070071fe0700f8
:101340000006be000a00be00020037008904e90062
:101350000c00be002d0007002e0007002b00070028
:1013600069fe07000001be000c00be00c0fc0700c3
:101370000005be000001be00260007000006be00fa
:10138000a2f32300430d2c005ffe0700809fbe00e8
:101390000c00be00d2e32700d3f02b001d00070095
:1013a0004f01be00b2fc07000006be000a01be00ed
:1013b000180007000a01be0053fe07000006be0029
:1013c0006148b90007fd07000005be00320828008b
:1013d000e3952b000f0007000c01be004afe07003a
:1013e0000006be000a00be000200280013f323001e
:1013f000080007000c01be0043fe07004f06be00b8
:101400004f05be004f04be000000060003f023009d
:1014100002000500889fbe008a9fbe008c1f7800d6
:1014200030fd070037fd330003866c006450e10097
:10143000240032006420e100270032006150e10006
:10144000220032006120e100210032008b85420041
:10145000eb07b1000134b800003ab80008044200bc
:1014600089844a00013ab8000030b8008880400002
:1014700009014a0004003300000040008180480058
:10148000020149008b05e900c909dd0083017000f4
:101490000100320013002000c814de004814dd00f3
:1014a0004709de001200b200c808de0008847000a0
:1014b000d1fc070001f0a1000cf0a70001f0a00092
:1014c00019fd37006120e1001bfd32000801be005c
:1014d0000200be00f7ff37006150e100fcff3a0058
:1014e00015fd3700889fbe008a9fbe00841f7800cc
:1014f000fcfc07004f00780011003300f0ff2f00c4
:10150000838f6c0006003b00040565000a00a700fd
:101510000800370009f0a60010002000080037007e
:10152000820f5400838f5c000300390010002000fc
:1015300001003e000000200009f0a7000000ea00c2
:101540004f05be004f04be000000e0000000060092
:1015500080007800010178003104e000fdff3a00ce
:0815600000005100000006002c
:020000040000fa
:101568000d20000050420000312000006973000087
:10157800207000007265000073730000656400004d
:101588002020000020200000202000002020000053
:10159800000d0000205000004232000020690000c9
:1015a800732000007072000065730000736500000e
:1015b80064200000202000002020000020200000df
:1015c800200000000d2000005042000033200000e1
:1015d80069730000207000007265000073730000da
:1015e800656400002020000020200000202000006a
:1015f80020200000000d00002050000042310000b3
:10160800206100006e64000020500000423300009a
:101618002061000072650000207000007265000003
:101628007373000065640000000d00002050000086
:1016380042320000206100006e640000205000006b
:101648004233000020610000726500002070000035
:10165800726500007373000065640000000d0000ef
:101668002050000042310000206100006e6400003c
:101678002050000042320000206100007265000026
:10168800207000007265000073730000656400003c
:10169800000d0000204100006c6c0000205000008c
:1016a8004273000020700000726500007373000030
:1016b8006564000020200000202000002020000099
:1016c80020200000000d0000204e00006f74000074
:1016d800686900006e6700002070000072650000f5
:1016e80073730000656400002020000020200000c3
:1016f8002020000020200000000000000d20000035
:101708004e6f000074680000696e000067200000da
:1017180070720000657300007365000064200000ab
:1017280020200000202000002020000020000000d1
:020000040000fa
:101738000000fa00c802a900c822a800cc02a8002c
:101748008000200080118800113a800000002700e6
:101758008080600000002600808f500003003a005f
:10176800c0002000c011880010003700113a800026
:10177800000027008080600000002500808f500056
:1017880003003a00c0002000c0118800070037009d
:10179800113a800000002700008060000000e0008f
:1017a80002003a0070062000c011880000002a00dc
:1017b8009011880087e0a90091058000f0ff2800bb
:1017c8008080600000002300010070009005880000
:1017d80097e0a80087c0a90091058000f08f2f002e
:1017e8000080600000a0a0009005880097c0a900b4
:1017f80031e2a8003342a8000080fa000000060089
:101808000400fa00004f780011079800c8ff07008d
:101818000b0037000000000091118000002020001c
:10182800008060000000e000fbff3a001e00fb00a3
:10183800a01188001e0090000000e9001007980021
:101848001e0090000000e000f2ff3a0000000000d7
:101858009111800000102000008060000000e0006e
:10186800fbff320031e2a9000080fa000000060008
:101878000400fa00100798000040eb001047980099
:101888001100200000c2b300ddff07001100200096
:1018980000c3b300daff07001100200080c7b300bf
:1018a800d7ff070030c0b300004f7800150037009d
:1018b8001e00fb004200dd009e0090000008de00d4
:1018c800004078006f406000104798001e4090006c
:1018d800e94f5000040034001e4090007043b000ef
:1018e80010479800030037001e4090000043b000e6
:1018f80010479800110020001e409000c0ff07000c
:101908001e4fe9001e4078000004e000e8ff3d009b
:101918001100200000c2b300b9ff07000000eb006f
:10192800100798000080fa00000006000600fa0080
:1019380010079800210798000040eb001047980016
:101948001100200000c2b300adff07001100200005
:1019580000c3b300aaff07001100200080c7b3002e
:10196800a7ff070070c0b300004f78001b003700c6
:101978001e00fb004201dd001e009000ae0090003a
:10198800820178008301e900030033008100d1005f
:101998000080d300fbff3700004078006f406000f4
:1019a800104798001e409000e94f50000400340092
:1019b8001e4090007043b0001047980003003700a5
:1019c8001e4090000043b00010479800110020000e
:1019d8001e4090008aff07001e4fe9001e40780055
:1019e8000004e000e2ff3d001100200000c2b30047
:1019f80083ff07006000b8001007980021079800cf
:101a08000080fa00000006000800fa00889fbe0067
:101a1800300798000040eb00004f780011002000cc
:101a280000c2b30076ff07001e0037003e0090009a
:101a38008000eb006cfb07000004be001e80fb006a
:101a480064001000cf80de0064fb07000001be00c8
:101a58000000200001122400b8fb07000001be00ae
:101a68000800be0000fb070041fb070010079800b4
:101a78001e019000d0cc2c000010b8004308de00f6
:101a88006a00b90000007800000051004047980043
:101a98004e4090000043b0001100200058ff07009e
:101aa8001e4fe8001e407800e44f5000dfff36006c
:101ab8001100200000c2b30051ff07004f04be0010
:101ac8000080fa00000006000400fa0010079800e1
:101ad8000000eb00000f7800060037001e009000a1
:101ae8001e004000104078001100200044ff07004d
:101af8001e0fe8001e00900093fe07009e0f500086
:101b0800f6ff31000080fa00000006000000fa002d
:101b1800c042a800c082a800c882a800c902a900c3
:101b28006bc0a8006800a8006820a8000080eb002f
:101b3800601988000080fa00000006000000fa0022
:101b480000408000e10f5000060032001040800085
:101b5800e10f50000300320020408000e10f5000e8
:101b680002003a00800020005b0007000628ef0012
:101b780000408000e10f500003003a003040800030
:101b88000000e8003040880010408000e10f50005d
:101b980003003a00304080000080e80030408800b0
:101ba80020408000e10f500003003a0030408000e0
:101bb800640040003040880030408000e40f50004e
:101bc80022003200e40f500007003c00e20f5000f2
:101bd80015003200e20f50002d003c00e10f5000cc
:101be8000800320032003700e60f500024003200af
:101bf800e60f50001e003500e70f500028003200a5
:101c08002b00370040ab2800afff0700cd02a8002b
:101c1800401f200083000700cd02a900401f2000bc
:101c2800800007002a003700d0ac2800a6ff070074
:101c3800cd02a800007d20007a000700cd02a9008f
:101c4800007d2000770007002100370060ae2800e3
:101c58009dff0700cd02a80080bb2000710007008f
:101c6800cd02a90080bb20006e00070018003700d5
:101c7800f0af280094ff0700cd02a8001400370039
:101c880090b1280090ff0700cd02a800100037008f
:101c980030b328008cff0700cd02a8000c003700e5
:101ca800d0b4280088ff0700cd02a800080037003c
:101cb80070b6280084ff0700cd02a90000022000aa
:101cc80005000700a00020005600070000000000e3
:101cd8000080fa00000006000400fa0010079800cf
:101ce8001e009000e80f500003003a000040eb008f
:101cf800004f7800100037009e009000401f200021
:101d0800808f500003003a0060c6b300004f78008f
:101d1800090037009e00900000022000808f5000cc
:101d280003003a0050c5b300004f780002003700a6
:101d380050c5b300004f780011028000000e20004b
:101d48000100700010028800213a8000f08f2f00f7
:101d580000806000203a88001e01fb0080072000f8
:101d6800a109200033742000804978008149780057
:101d780082497800120020006004200071052000cc
:101d880023742000804978008149780082497800ce
:101d98004207a80000000000103a800061006000bf
:101da8000000e000fcff3a0011028000f0f12f0073
:101db80000806000100288000080fa000000060021
:101dc8000000fa0081e0a8006105800000002700fb
:101dd800010070006005880031058000f0ff2800d0
:101de8008080600000002600010070003005880037
:101df8008660a90084e0a9009660a80094e0a80085
:101e08006000a8006020a80063c0a80020b82800cf
:101e18002dff070000022000afff07000080fa0036
:101e2800000006000200fa00000f78000621ef000b
:101e38001021a9001061a90010a1a8001081a80014
:101e480011a1a90011e1a800a7c0a800a7a0a80097
:101e5800a780a90094e0a80084e0a9001e007800eb
:101e68006f00b90000007800600888000140fe009b
:081e78000080fa0000000600e2
:020000040000fa
:101e80000008000006000000000000000608000036
:101e9000020000000000000008080000020000002e
:101ea000000000000a08000002000000000000001e
:041eb000000000002e
:020000040000fa
:101eb4000000fa008000200088ff070014ff0700dc
:0c1ec400c0ff07001eff0700feff3700f4
:020000040000fa
:0200000401f009
:040010007f0000006d
:00000001FF
