:020000040000fa
:080000000002040000000000f2
:020000040000fa
:04000800960300005b
:020000040000fa
:04000c009603000057
:020000040000fa
:040010009603000053
:020000040000fa
:04001400960300004f
:020000040000fa
:04001800960300004b
:020000040000fa
:04001c009603000047
:020000040000fa
:040020009603000043
:020000040000fa
:04002400960300003f
:020000040000fa
:04002800960300003b
:020000040000fa
:04002c009603000037
:020000040000fa
:040030009603000033
:020000040000fa
:04003400960300002f
:020000040000fa
:04003800960300002b
:020000040000fa
:04003c009603000027
:020000040000fa
:040040009603000023
:020000040000fa
:040044008c03000029
:020000040000fa
:04004800960300001b
:020000040000fa
:04004c009603000017
:020000040000fa
:040050009603000013
:020000040000fa
:04005400960300000f
:020000040000fa
:04005800960300000b
:020000040000fa
:04005c009603000007
:020000040000fa
:040060009603000003
:020000040000fa
:0400640096030000ff
:020000040000fa
:0400680096030000fb
:020000040000fa
:04006c0096030000f7
:020000040000fa
:0400700096030000f3
:020000040000fa
:04007400c8020000be
:020000040000fa
:0400780096030000eb
:020000040000fa
:04007c0096030000e7
:020000040000fa
:0400800096030000e3
:020000040000fa
:0400840096030000df
:020000040000fa
:0400880096030000db
:020000040000fa
:04008c0096030000d7
:020000040000fa
:0400900096030000d3
:020000040000fa
:0400940096030000cf
:020000040000fa
:0400980096030000cb
:020000040000fa
:04009c0096030000c7
:020000040000fa
:0400a00096030000c3
:020000040000fa
:0400a40096030000bf
:020000040000fa
:0400a80096030000bb
:020000040000fa
:0400ac0096030000b7
:020000040000fa
:0400b00096030000b3
:020000040000fa
:0400b40096030000af
:020000040000fa
:0400b80096030000ab
:020000040000fa
:0400bc0096030000a7
:020000040000fa
:0400c00096030000a3
:020000040000fa
:0400c400960300009f
:020000040000fa
:0400c800960300009b
:020000040000fa
:0400cc009603000097
:020000040000fa
:0400d0009603000093
:020000040000fa
:0400d400960300008f
:020000040000fa
:0400d800960300008b
:020000040000fa
:0400dc009603000087
:020000040000fa
:0400e0009603000083
:020000040000fa
:0400e400960300007f
:020000040000fa
:0400e800960300007b
:020000040000fa
:0400ec009603000077
:020000040000fa
:0400f0009603000073
:020000040000fa
:0400f400960300006f
:020000040000fa
:0400f800960300006b
:020000040000fa
:0400fc009603000067
:020000040000fa
:040100009603000062
:020000040000fa
:04010400960300005e
:020000040000fa
:04010800960300005a
:020000040000fa
:04010c009603000056
:020000040000fa
:040110009603000052
:020000040000fa
:04011400960300004e
:020000040000fa
:04011800960300004a
:020000040000fa
:04011c009603000046
:020000040000fa
:040120009603000042
:020000040000fa
:04012400960300003e
:020000040000fa
:04012800960300003a
:020000040000fa
:04012c009603000036
:020000040000fa
:040130009603000032
:020000040000fa
:04013400960300002e
:020000040000fa
:04013800960300002a
:020000040000fa
:04013c009603000026
:020000040000fa
:040140009603000022
:020000040000fa
:04014400960300001e
:020000040000fa
:04014800960300001a
:020000040000fa
:04014c009603000016
:020000040000fa
:040150009603000012
:020000040000fa
:04015400960300000e
:020000040000fa
:04015800960300000a
:020000040000fa
:04015c009603000006
:020000040000fa
:040208009603000059
:020000040000fa
:04020c009603000055
:020000040000fa
:040210009603000051
:020000040000fa
:04021400960300004d
:020000040000fa
:040218009603000049
:020000040000fa
:04021c009603000045
:020000040000fa
:040220009603000041
:020000040000fa
:04022400960300003d
:020000040000fa
:040228009603000039
:020000040000fa
:04022c009603000035
:020000040000fa
:040230009603000031
:020000040000fa
:04023400960300002d
:020000040000fa
:040238009603000029
:020000040000fa
:04023c009603000025
:020000040000fa
:040240009603000021
:020000040000fa
:040244008c03000027
:020000040000fa
:040248009603000019
:020000040000fa
:04024c009603000015
:020000040000fa
:040250009603000011
:020000040000fa
:04025400960300000d
:020000040000fa
:040258009603000009
:020000040000fa
:04025c009603000005
:020000040000fa
:040260009603000001
:020000040000fa
:0402640096030000fd
:020000040000fa
:0402680096030000f9
:020000040000fa
:04026c0096030000f5
:020000040000fa
:0402700096030000f1
:020000040000fa
:04027400c8020000bc
:020000040000fa
:0402780096030000e9
:020000040000fa
:04027c0096030000e5
:020000040000fa
:0402800096030000e1
:020000040000fa
:0402840096030000dd
:020000040000fa
:0402880096030000d9
:020000040000fa
:04028c0096030000d5
:020000040000fa
:0402900096030000d1
:020000040000fa
:0402940096030000cd
:020000040000fa
:0402980096030000c9
:020000040000fa
:04029c0096030000c5
:020000040000fa
:0402a00096030000c1
:020000040000fa
:0402a40096030000bd
:020000040000fa
:0402a80096030000b9
:020000040000fa
:0402ac0096030000b5
:020000040000fa
:0402b00096030000b1
:020000040000fa
:0402b40096030000ad
:020000040000fa
:0402b80096030000a9
:020000040000fa
:0402bc0096030000a5
:020000040000fa
:0402c00096030000a1
:020000040000fa
:0402c400960300009d
:020000040000fa
:0402c8009603000099
:020000040000fa
:0402cc009603000095
:020000040000fa
:0402d0009603000091
:020000040000fa
:0402d400960300008d
:020000040000fa
:0402d8009603000089
:020000040000fa
:0402dc009603000085
:020000040000fa
:0402e0009603000081
:020000040000fa
:0402e400960300007d
:020000040000fa
:0402e8009603000079
:020000040000fa
:0402ec009603000075
:020000040000fa
:0402f0009603000071
:020000040000fa
:0402f400960300006d
:020000040000fa
:0402f8009603000069
:020000040000fa
:0402fc009603000065
:020000040000fa
:040300009603000060
:020000040000fa
:04030400960300005c
:020000040000fa
:040308009603000058
:020000040000fa
:04030c009603000054
:020000040000fa
:040310009603000050
:020000040000fa
:04031400960300004c
:020000040000fa
:040318009603000048
:020000040000fa
:04031c009603000044
:020000040000fa
:040320009603000040
:020000040000fa
:04032400960300003c
:020000040000fa
:040328009603000038
:020000040000fa
:04032c009603000034
:020000040000fa
:040330009603000030
:020000040000fa
:04033400960300002c
:020000040000fa
:040338009603000028
:020000040000fa
:04033c009603000024
:020000040000fa
:040340009603000020
:020000040000fa
:04034400960300001c
:020000040000fa
:040348009603000018
:020000040000fa
:04034c009603000014
:020000040000fa
:040350009603000010
:020000040000fa
:04035400960300000c
:020000040000fa
:040358009603000008
:020000040000fa
:04035c009603000004
:020000040000fa
:100400000f8020000edf20000e0188000000000099
:10041000000020000000e000020032000001200087
:100420002002880014000700c20007000000e0005e
:1004300003003a0000002000010020000200370005
:100440000000200001002000810f70000100320038
:1004500014000700000020000000e000020032004d
:100460000000020000000000a804020000000000dc
:100470000040da000000fe004440a9000000200017
:100480000000e0000300320000002000a00188000e
:100490004440a800000006008a1f78008b1f7800e7
:1004a0000000060091018800800478000000eb0045
:1004b0001a003700e284440032a0b4009905ba0063
:1004c000e284440032a0b4009906ba00e2844400f9
:1004d00032a0b4000006eb00476fde00fd07b2005b
:1004e000636ce10003003a00ebff07000000eb0043
:1004f0000a003700606ce10004003a00005deb0088
:100500008b05e900fdff3e00040037006168e10053
:10051000010032000086eb000b00070019c7ba008b
:100520001905ba000e04e00003003a000a00e000da
:10053000e0ff3a0000000600fe07b2009e018800be
:100540008a047800f5ff3700395dba008b05e900b1
:100550000c003200295dba008b05e900080032006a
:100560000c00e00003003a00e284440032a0b40032
:10057000f5ff370019ddba008b05e900faff3a00f4
:100580008904e800e184440032a0b40000000600c1
:100590003600f800809fbe00829fbe00849fbe0090
:1005a000869fbe000000fa008660a90000000000df
:1005b00080002000600007001016800064006000ca
:1005c0000000e00006003a00101680007000600095
:1005d0000000e00002003a00cd02a800450037000c
:1005e00010168000700060000000e00006003a0075
:1005f00050168000700060000000e00002003a0029
:10060000cd02a8003b003700101680006400600097
:100610000000e00006003a00501680007000600004
:100620000000e00002003a00cd02a80031003700cf
:1006300010168000640060000000e0000c003a002a
:1006400006003700cd02a800803e2000ab00070066
:10065000cd02a900803e2000a800070010168000ef
:10066000640060000000e000f6ff32002100370067
:1006700010168000700060000000e0000c003a00de
:1006800006003700cd02a800007d20009b00070077
:10069000cd02a900007d2000980007001016800000
:1006a000700060000000e000f6ff3200110037002b
:1006b00050168000700060000000e0000c003a005e
:1006c00006003700cd02a80080bb20008b00070089
:1006d000cd02a90080bb20008800070050168000d2
:1006e000700060000000e000f6ff320001003700fb
:1006f000cd02a900000220000f0007000080fa00d0
:100700004f03be004f02be004f01be004f00be00af
:100710003600f900004006000000fa0084e0a9005d
:1007200011e1a9000080fa00004006000040da0054
:080730000000fe0000000500be
:020000040000fa
:100738000400fa00100798001e009000e80f50000f
:1007480003003a000040eb00004f7800100037002b
:100758009e009000401f2000808f500003003a0048
:1007680060c6b300004f7800090037009e00900073
:1007780000022000808f500003003a0050c5b300eb
:10078800004f78000200370050c5b300004f7800d2
:1007980011028000000e2000010070001002880085
:1007a800213a8000f08f2f0000806000203a8800f6
:1007b8001e01fb0080072000a109200033742000df
:1007c8008049780081497800824978001200200029
:1007d80060042000710520002374200080497800ff
:1007e80081497800824978004207a800000000008b
:1007f800103a8000610060000000e000fcff3a0051
:1008080011028000f0f12f000080600010028800c3
:100818000080fa00000006000000fa00c042a800ac
:10082800c082a800c882a800c902a9006bc0a8009d
:100838006800a8006820a8000080eb006019880004
:100848000080fa00000006000000fa001016800080
:10085800640060000000e00001003a00cd02a8003a
:1008680010168000700060000000e00001003a00ef
:10087800cd02a80050168000700060000000e00063
:1008880002003a00cd02a80001003700cd02a900fd
:100898000080fa00000006000000fa0081e0a800cd
:1008a80061058000000027000100700060058800d5
:1008b80031058000f0ff28008080600000002600dd
:1008c80001007000300588008660a90084e0a90056
:1008d8009660a80094e0a8006000a8006020a80026
:1008e80063c0a8000002200091ff07000080fa0002
:1008f800000006000200fa00000f78000621ef0051
:100908001021a9001061a90010a1a8001081a80059
:1009180011a1a90011e1a800a7c0a800a7a0a800dc
:10092800a780a90094e0a80084e0a9001e00780030
:100938006f00b90000007800600888000140fe00e0
:100948000080fa00000006000000fa00b2ff07006d
:08095800d1ff0700ffff37008b
:020000040000fa
:0200000401f009
:040010007f0000006d
:00000001FF
